:020000040000FA
:10000000B8020010690100007101000073010000D6
:100010007501000077010000790100000000000078
:100020000000000000000000000000007B01000054
:100030007D010000000000007F0100008101000040
:1000400083010000830100008301000083010000A0
:100050008301000083010000830100008301000090
:100060008301000083010000830100008301000080
:100070008301000083010000830100008301000070
:100080008301000083010000830100008301000060
:100090008301000083010000830100008301000050
:1000A0008301000083010000830100008301000040
:1000B0008301000083010000830100008301000030
:1000C00083010000830100008301000000F002F8BA
:1000D00000F03AF80AA090E8000C82448344AAF1A8
:1000E0000107DA4501D100F02FF8AFF2090EBAE8A6
:1000F0000F0013F0010F18BFFB1A43F0010318475C
:100100003008000050080000103A24BF78C878C1B9
:10011000FAD8520724BF30C830C144BF04680C600D
:10012000704700000023002400250026103A28BF55
:1001300078C1FBD8520728BF30C148BF0B60704759
:100140001FB51FBD10B510BD00F0A6F81146FFF792
:10015000F7FF00F056FB00F0C4F803B4FFF7F2FF1E
:1001600003BC00F0DFFB0000094880470948004756
:10017000FEE7FEE7FEE7FEE7FEE7FEE7FEE7FEE757
:10018000FEE7FEE704480549034A054B70470000B7
:10019000A9040000CD000000B8000010B802001053
:1001A000B800001053EA020C00F069802DE9F04B12
:1001B0004FF00006002B1FBFB3FA83F503FA05F4D6
:1001C00024FA05F65E4012BF1643B2FA82F502FA2F
:1001D00005F4C5F120051EBF22FA05FC44EA0C0413
:1001E000203556EA044C4FEA144418BF641C4FF003
:1001F00000084FF00009904271EB030C39D300293D
:1002000019BFB1FA81F701FA07F6B0FA80F700FAE0
:1002100007F6C7F120071EBF20FA07FC46EA0C06C6
:100220002037B6FBF4FCA7EB0507103F07F01F0BC8
:10023000CBF120060CFA0BFB2CFA06F644BFB346B2
:100240000026202FA4BF5E464FF0000B5BEA060C91
:1002500008BF4FF0010B19EB0B09ABFB027C48EB1D
:100260000608C01B06FB02CC0BFB03CC71EB0C0198
:10027000C1E70B46024641464846BDE8F08B13B540
:100280004FF000004FF00001AFF30080BDE81C40CC
:100290007047704770477047754600F029F8AE46C2
:1002A00005006946534620F00700854618B020B582
:1002B000FFF768FFBDE820404FF000064FF0000751
:1002C0004FF000084FF0000B21F00701AC46ACE8FE
:1002D000C009ACE8C009ACE8C009ACE8C0098D466B
:1002E00070470446AFF300802046FFF736FF00005A
:1002F000004870475800001070470000FFFFFFFFE4
:100300002DE9F04781480068C0F3016003287CD1E3
:100310007F48006810F0030006D0012833D002287F
:100320005FD003282ED100E000BF78480068C0F3FA
:10033000074000F101044FF002017648D0F8880030
:10034000C0F30E0000F10100A1FB0001724B4FF061
:10035000000CA0FB037901FB039100FB0C1122466A
:1003600063463846FFF71EFF05466C480068C0B27A
:1003700000F1010422464FF000032846FFF712FF68
:10038000674908605DE061480068C0F3074000F11C
:1003900001044FF002015F48D0F88800C0F30E005E
:1003A00000F10100A1FB00105E4A4FF0000CA1FB20
:1003B000027900FB029001FB0C012246634638469D
:1003C000FFF7F0FE054655480068C0B200F1010491
:1003D00022464FF000032846FFF7E4FE504908602C
:1003E0002FE04A480068C0F3074000F101044FF0D5
:1003F00002014848D0F88800C0F30E0000F1010067
:10040000A1FB00124FF4004000E01BE04FF000039E
:10041000A1FB007902FB009001FB03012246384654
:10042000FFF7C0FE05463D480068C0B200F1010478
:1004300022464FF000032846FFF7B4FE3849086013
:1004400000BF2FE03248006810F0030006D00128FA
:1004500010D0022819D0032823D100E000BF2F4874
:100460000068C0B200F101002B49B1FBF0F02C494B
:10047000086016E029480068C0B200F1010029496F
:10048000B1FBF0F0264908600BE024480068C0B2D8
:1004900000F101004FF40041B1FBF0F02049086089
:1004A00000BF00BFBDE8F08720201F490860194841
:1004B000D0F8A00110F0200F05D000BF1A48006846
:1004C00010F0400FFAD00320144908601748114972
:1004D000C1F8A8011648174908604FF001000C49FF
:1004E00008604FF00400A1F10401086012481349AC
:1004F000086040F201100749C1F8C80108460068C9
:1005000020F4704040F480400860704788C00F407D
:100510000CC10F4000C00F4000093D0004C10F4056
:1005200000000010001BB700A0C10F4055515155ED
:1005300055545554ACC10F40DEF7EFEFC4C00F4027
:100540004FF0F060E749C8614FF00060C8614000BB
:10055000C8617047002100E0491C8142FCD370470C
:1005600010B504460B46FFF7EBFFDE48446123B9A4
:100570004FF00060DB49C86103E04FF00060D949EB
:1005800088614FF08050D74988611920FFF7E2FF5A
:100590004FF08050D349C86110BD70B504460E4677
:1005A00004F0F005ED0431462846FFF7D9FF04F0CA
:1005B0000F05ED0531462846FFF7D2FF4FF47A705C
:1005C000FFF7C8FF70BD00B5C7484068C74908407D
:1005D000C5494860C348006840F0FC50C149086004
:1005E000FFF7AEFF4FF44860FFF7B4FF0021332060
:1005F000FFF7D3FF47F23050FFF7ACFF0021322066
:10060000FFF7CBFF47F23050FFF7A4FF002128206F
:10061000FFF7C3FF47F23050FFF79CFF00210C208B
:10062000FFF7BBFF4FF44870FFF794FF002106204F
:10063000FFF7B3FF4FF44870FFF78CFF0021012054
:10064000FFF7ABFF42F21070FFF784FF00BD70B5FB
:10065000054600240BE02E5D01213046FFF79DFF8B
:10066000641C102C03D10021C020FFF796FF285DE9
:100670000028F0D170BD70B59D480078A0F130051C
:100680009B488078A0F13006994840782B2801D10A
:10069000AC1900E0AC1B0A2094FBF0F030B904F177
:1006A000300093490871202048710AE031209049B8
:1006B00008710A2094FBF0F100FB114030308C49A6
:1006C00048710021C020FFF768FF4FF44870FFF722
:1006D00041FF8748FFF7BBFF70BD8249496B854AE0
:1006E00011601146096801F0F06111601146096856
:1006F00069B10121804A11707E490968C90C7D4A9F
:100700001160800A1146097801437C4A11707047D4
:1007100000B545E001207A49087037E07848007854
:10072000012803D180027749086017E074480078F7
:10073000022803D18002734908600FE070480078F6
:10074000032804D14FF480506E49086006E06C48DD
:100750000078042802D1C0026A4908604FF4705042
:100760006049C8656748006888650020624908706C
:1007700064480068FFF7B1FF5F480078012800D1A6
:1007800008E05F480078401C5D4908705C480078CC
:100790000528C3DB00BF58480078012800D100E0DD
:1007A000B8E700BF00205849086019E0574856498B
:1007B0000968405C5149097888420CD15448524933
:1007C0000968405C4D490870084600784849514A1C
:1007D0001268885408E04C480068401C4A49086088
:1007E000494800681028E1D300BF0021C020FFF76E
:1007F000D4FE4FF44870FFF7ADFE3D48FFF727FFEA
:1008000000BDFFF751FEFFF77BFD3648006C40F45A
:100810007050344908640846006A20F0F0600862AD
:10082000FFF7D1FE00218020FFF7B7FE4FF448709C
:10083000FFF790FE3848FFF70AFF51E000203549E6
:100840000860FFF765FF33480068401C31490860C5
:1008500000203249086004E030480068401C2F49FD
:1008600008602E4800682E498842F5DBFFF750FFEC
:1008700028480068401C2749086000202749086074
:1008800004E026480068401C2449086023480068AA
:1008900023498842F5DBFFF73BFF1E480068401CF8
:1008A0001C49086000201D49086004E01B480068DE
:1008B000401C1A4908601948006819498842F5DB4C
:1008C000FFF7D9FE00201549086004E013480068CE
:1008D000401C124908601148006811498842F5DB44
:1008E000ACE7000000C0092000C00240FF3F00FC50
:1008F000140000104C0000104200001043000010D3
:100900004000001048000010440000101B000010C0
:100910002B00001050000010040000103C000010DC
:10092000A086010001491820ABBEFEE726000200A8
:1009300050090000000000105800000008010000ED
:10094000A809000058000010600200002401000007
:10095000C0C62D0043616C63756C6174696E67205D
:100960002B2F2D002020203D20200011214181121D
:100970002242821424448418284888303132333487
:1009800035363738392B2D2020202000000000007C
:100990000000000000000000000000000000000057
:0809A00000000000000000004F
:04000005000000CD2A
:00000001FF
