:020000040000FA
:1000000050030010A1010000A9010000AB01000095
:10001000AD010000AF010000B101000000000000D0
:10002000000000000000000000000000B30100001C
:10003000B501000000000000B7010000B901000098
:10004000BB010000BB010000BB010000BB010000C0
:10005000BB010000BB010000BB010000BB010000B0
:10006000BB010000BB010000BB010000BB010000A0
:10007000BB010000BB010000BB010000BB01000090
:10008000BB010000BB010000BB010000BB01000080
:10009000BB010000BB010000BB010000BB01000070
:1000A000BB010000BB010000BB010000BB01000060
:1000B000BB010000BB010000BB010000BB01000050
:1000C000BB010000BB010000BB01000000F002F812
:1000D00000F03CF80AA090E8000C82448344AAF1A6
:1000E0000107DA4501D100F031F8AFF2090EBAE8A4
:1000F0000F0013F0010F18BFFB1A43F0010318475C
:10010000DC060000FC060000103A24BF78C878C165
:10011000FAD8520724BF30C830C144BF04680C600D
:10012000704700000023002400250026103A28BF55
:1001300078C1FBD8520728BF30C148BF0B60704759
:100140001FB500F01CFB1FBD10B510BD00F020FB5B
:100150001146FFF7F5FF00F08EFA00F0B9F803B48E
:10016000FFF7F2FF03BC00F0BDF800000B49D1F827
:1001700000C04A685CF8043B1068184442F8040B5D
:100180008C4528BFA1F1DC0C8A4228BFA1F1DC021A
:10019000C1F800C04A6020F000407047E400001041
:1001A0000948804709480047FEE7FEE7FEE7FEE70B
:1001B000FEE7FEE7FEE7FEE7FEE7FEE70448054947
:1001C000034A054B70470000A9040000CD00000061
:1001D00050010010500300105001001053EA020CAF
:1001E00000F069802DE9F04B4FF00006002B1FBF97
:1001F000B3FA83F503FA05F424FA05F65E4012BF5C
:100200001643B2FA82F502FA05F4C5F120051EBFC5
:1002100022FA05FC44EA0C04203556EA044C4FEA65
:10022000144418BF641C4FF000084FF000099042BE
:1002300071EB030C39D3002919BFB1FA81F701FA28
:1002400007F6B0FA80F700FA07F6C7F120071EBFDD
:1002500020FA07FC46EA0C062037B6FBF4FCA7EBB5
:100260000507103F07F01F0BCBF120060CFA0BFB24
:100270002CFA06F644BFB3460026202FA4BF5E46E4
:100280004FF0000B5BEA060C08BF4FF0010B19EBB7
:100290000B09ABFB027C48EB0608C01B06FB02CC3B
:1002A0000BFB03CC71EB0C01C1E70B460246414648
:1002B0004846BDE8F08B13B54FF000004FF0000149
:1002C000AFF30080BDE81C4070477047704770472F
:1002D0000446AFF300802046FFF741FF0048704717
:1002E000EC00001001491820ABBEFEE7260002001A
:1002F000704700000000000000000000FFFFFFFF4B
:100300002DE9F04781480068C0F3016003287CD1E3
:100310007F48006810F0030006D0012833D002287F
:100320005FD003282ED100E000BF78480068C0F3FA
:10033000074000F101044FF002017648D0F8880030
:10034000C0F30E0000F10100A1FB0001724B4FF061
:10035000000CA0FB037901FB039100FB0C1122466A
:1003600063463846FFF73AFF05466C480068C0B25E
:1003700000F1010422464FF000032846FFF72EFF4C
:10038000674908605DE061480068C0F3074000F11C
:1003900001044FF002015F48D0F88800C0F30E005E
:1003A00000F10100A1FB00105E4A4FF0000CA1FB20
:1003B000027900FB029001FB0C012246634638469D
:1003C000FFF70CFF054655480068C0B200F1010474
:1003D00022464FF000032846FFF700FF504908600F
:1003E0002FE04A480068C0F3074000F101044FF0D5
:1003F00002014848D0F88800C0F30E0000F1010067
:10040000A1FB00124FF4004000E01BE04FF000039E
:10041000A1FB007902FB009001FB03012246384654
:10042000FFF7DCFE05463D480068C0B200F101045C
:1004300022464FF000032846FFF7D0FE38490860F7
:1004400000BF2FE03248006810F0030006D00128FA
:1004500010D0022819D0032823D100E000BF2F4874
:100460000068C0B200F101002B49B1FBF0F02C494B
:10047000086016E029480068C0B200F1010029496F
:10048000B1FBF0F0264908600BE024480068C0B2D8
:1004900000F101004FF40041B1FBF0F02049086089
:1004A00000BF00BFBDE8F08720201F490860194841
:1004B000D0F8A00110F0200F05D000BF1A48006846
:1004C00010F0400FFAD00320144908601748114972
:1004D000C1F8A8011648174908604FF001000C49FF
:1004E00008604FF00400A1F10401086012481349AC
:1004F000086040F201100749C1F8C80108460068C9
:1005000020F4704040F480400860704788C00F407D
:100510000CC10F4000C00F4000093D0004C10F4056
:1005200000000010001BB700A0C10F4055515155ED
:1005300055545554ACC10F40DEF7EFEFC4C00F4027
:100540004FF0F0607849C8614FF00060C86140002A
:10055000C8617047002100E0491C8142FCD370470C
:1005600010B504460B46FFF7EBFF6F48446123B913
:100570004FF000606C49C86103E04FF000606A49C9
:1005800088614FF08050684988611920FFF7E2FFC9
:100590004FF080506449C86110BD70B504460E46E6
:1005A00004F0F005ED0431462846FFF7D9FF04F0CA
:1005B0000F05ED0531462846FFF7D2FF4FF47A705C
:1005C000FFF7C8FF70BD00B558484068584908405B
:1005D000564948605448006840F0FC505249086051
:1005E000FFF7AEFF4FF44860FFF7B4FF0021332060
:1005F000FFF7D3FF47F23050FFF7ACFF0021322066
:10060000FFF7CBFF47F23050FFF7A4FF002128206F
:10061000FFF7C3FF47F23050FFF79CFF00210C208B
:10062000FFF7BBFF4FF44870FFF794FF002106204F
:10063000FFF7B3FF4FF44870FFF78CFF0021012054
:10064000FFF7ABFF42F21070FFF784FF00BD70B5FB
:10065000054600240BE02E5D01213046FFF79DFF8B
:10066000641C102C03D10021C020FFF796FF285DE9
:100670000028F0D170BD86B02EA207CA03AB07C315
:100680002FA207CA8DE807002748406D20F480504C
:1006900025494865FFF708FFFFF732FEFFF793FF94
:1006A00000218020FFF779FF4FF44870FFF752FFD9
:1006B00003A8FFF7CCFF0021C020FFF76EFF4FF427
:1006C0004870FFF747FF6846FFF7C1FF2BE0164869
:1006D000406D10F4805F26D1FFF748FD05460620E7
:1006E00095FBF0F100FB1150451C05F13000C4B240
:1006F0008DF80A400021C020FFF74FFF4FF44870EB
:10070000FFF728FF6846FFF7A2FF00200F490860A7
:1007100004E00E480068401C0C4908600B48006863
:100720000B498842F5DBD2E700C0092000C0024037
:10073000FF3F00FC5052455353204B45593A0000AF
:100740004449452056414C55453A300004000010BC
:10075000A08601000B4910B5A1F17C020A4CC2E948
:100760003712372106E000EB104342F82130074BE7
:1007700000FB03400B1EA1F10101F4DC10BD0120C0
:10078000E8E7000084000010E119D666CD0D0100F5
:100790007546FFF7A3FDAE4605006946534620F0B7
:1007A0000700854618B020B5FFF708FDBDE82040DA
:1007B0004FF000064FF000074FF000084FF0000B1D
:1007C00021F00701AC46ACE8C009ACE8C009ACE8D0
:1007D000C009ACE8C0098D4670470000FC07000066
:1007E00000000010080000000801000004080000DC
:1007F000080000104803000024010000C0C62D00BE
:0408000000000000F4
:04000005000000CD2A
:00000001FF
